:100000000C9446000C9465000C9465000C946500FB
:100010000C9465000C9465000C9465000C946500CC
:100020000C9465000C9465000C9465000C946500BC
:100030000C9465000C94A4000C9465000C9465006D
:100040000C9465000C9465000C9465000C9465009C
:100050000C9465000C9465000C9465000C9465008C
:100060000C9465000C9465000C9465000C9465007C
:100070000C9465000C9465000C9465000C9465006C
:100080000C9465000C9465000C94650011241FBE4F
:10009000CFEFD0E4DEBFCDBF11E0A0E0B1E0EEE7EE
:1000A000F7E000E00BBF02C007900D92A831B10746
:1000B000D9F721E0A8E1B1E001C01D92A833B20751
:1000C000E1F70E941B020C94BD030C940000CF9337
:1000D000C82F8A3051F09091C00095FFFCCFC0939B
:1000E000C60090E080E0CF9108958DE00E94670007
:1000F000F2CF8BE0809381008DE790E090938900B0
:100100008093880082E080936F00109285001092A7
:1001100084008091010190910201A0910301B091AE
:1001200004018093190190931A01A0931B01B093CD
:100130001C018FB780688FBF0895109281000895C9
:1001400081E080931D0108951F920F920FB60F92C8
:1001500011240BB60F922F933F934F935F936F939E
:100160007F938F939F93AF93BF93EF93FF93809170
:10017000190190911A01A0911B01B0911C010197E6
:10018000A109B1098093190190931A01A0931B0151
:10019000B0931C01892B8A2B8B2B99F0FF91EF9147
:1001A000BF91AF919F918F917F916F915F914F918F
:1001B0003F912F910F900BBE0F900FBE0F901F908D
:1001C00018950E94A0008091010190910201A091D8
:1001D0000301B09104018093190190931A01A09337
:1001E0001B01B0931C01DACF6093010170930201EF
:1001F00080930301909304016093190170931A0195
:1002000080931B0190931C0108958091320190917D
:1002100033018130910569F084309105C9F0892B53
:1002200009F0089581E090E09093330180933201CA
:10023000089580B190E0809590958F7099270197EF
:1002400081F784E090E09093330180933201089528
:1002500080B190E0809590958F709927892B09F750
:10026000109233011092320181E090E090932401CA
:1002700080932301D6CF0F931F93CF93DF93082F43
:10028000192FD0E0C0E0CA30D10560F40E944B03C2
:1002900063E070E00E94BC02F801EC0FFD1F808358
:1002A0002196F1CFDF91CF911F910F910895809109
:1002B00020019091210181309105E1F0823091057A
:1002C00001F1892B39F081E090E090932101809336
:1002D000200106C081E090E09093210180932001ED
:1002E00080912001909121018130910589F0029740
:1002F00029F1089582E090E09093210180932001FC
:10030000EFCF81E090E09093210180932001E8CF2E
:100310008091220190E0FC01E85DFE4F308121E0F8
:1003200001C0220F3A95EAF72093250101966AE071
:1003300070E00E94BC028093220108951092250172
:10034000089580912601909127018230910509F44A
:1003500047C038F5009791F10197B1F520B130E031
:100360002095309527703327809122018150990B79
:100370006AE070E00E94BC02FC01E85DFE4F408133
:1003800081E090E002C0880F991F4A95E2F7281794
:100390003907D1F482E090E0909327018093260101
:1003A00013C0039789F480912501882369F081E0C7
:1003B00090E0909327018093260106C081E090E0B1
:1003C0009093270180932601809126019091270127
:1003D00082309105B9F080F470F4109218010895FC
:1003E000809125018111F0CF83E090E09093270167
:1003F00080932601E9CF0895039719F4109218010C
:100400000895089581E090911801911180E0809302
:100410001801089580911E0190911F01892B51F4BC
:100420008091180190E1899F90011124809125010C
:10043000822B85B9089511B88FEF82B984B915B8A8
:1004400090E080E00E949502272F862F922F0E9435
:100450004F030E94790063E070E080E090E00E942A
:10046000F400109224011092230181E090E0909317
:1004700021018093200188E291E00E943B010F2E30
:10048000F8EECF2EF3E0DF2EE12CF12CF02D812CB5
:10049000912C540108C00E94050180911D01882300
:1004A000E1F310921D0180912301909124010097A6
:1004B00091F3019791F78C149D04AE04BF0400F5ED
:1004C000029B06C088ECC816D104E104F10418F5BB
:1004D00015B810922101109220011092240110925F
:1004E000230181E0809300010F2EF8EECF2EF3E080
:1004F000DF2EE12CF12CF02D812C912C5401CDCF4D
:100500000E94570182E3C81AD108E108F108812C42
:10051000912C5401D5CF0E94A1010E940A0283E0D0
:10052000880E911CA11CB11CB8CFCF93DF9300D0D3
:1005300000D0CDB7DEB7FC010FB6F894809134013E
:1005400090913501A0913601B091370189839A834A
:10055000AB83BC830FBE309721F080839183A2834D
:10056000B38369817A818B819C810F900F900F906A
:100570000F90DF91CF91089597FB072E16F400940A
:1005800007D077FD09D00E94D00207FC05D03EF4C9
:10059000909581959F4F0895709561957F4F08952F
:1005A000AA1BBB1B51E107C0AA1FBB1FA617B70799
:1005B00010F0A61BB70B881F991F5A95A9F78095B5
:1005C0009095BC01CD010895CF92DF92EF92FF92FA
:1005D000CF93DF93CDB7DEB72A970FB6F894DEBF7F
:1005E0000FBECDBF89879A87A985BA852D913D9188
:1005F0004D915C9129833A834B835C83232B242B7D
:10060000252B41F424E239ED4BE557E029833A8369
:100610004B835C8369817A818B819C812DE133EFEF
:1006200041E050E00E945A0369017A01A7EAB1E46F
:100630009B01AC010E94790369837A838B839C833D
:10064000ACEEB4EFA70196010E9487039B01AC01B9
:1006500089819A81AB81BC81820F931FA41FB51F32
:10066000B7FF03C00197A109B048E985FA858083E7
:100670009183A283B3839F772A960FB6F894DEBF47
:100680000FBECDBFDF91CF91FF90EF90DF90CF9065
:1006900008950C94E40283E191E00C94E402B0E04C
:1006A000A0E08093130190931401A0931501B093DF
:1006B00016010895052E97FB1EF400940E94710305
:1006C00057FD07D00E948C0307FC03D04EF40C9416
:1006D000710350954095309521953F4F4F4F5F4F97
:1006E000089590958095709561957F4F8F4F9F4F9E
:1006F00008950E94AE03A59F900DB49F900DA49FF6
:10070000800D911D11240895B7FF0C9479030E9468
:100710007903821B930B0895A1E21A2EAA1BBB1B1F
:10072000FD010DC0AA1FBB1FEE1FFF1FA217B307BD
:10073000E407F50720F0A21BB30BE40BF50B661FD3
:10074000771F881F991F1A9469F760957095809597
:1007500090959B01AC01BD01CF010895A29FB0010E
:10076000B39FC001A39F700D811D1124911DB29FE5
:0E077000700D811D1124911D0895F894FFCF86
:10077E000101000000000000020000000067000000
:08078E00000000010000000062
:00000001FF
