:100000000C9446000C9465000C9465000C946500FB
:100010000C9465000C9465000C9465000C946500CC
:100020000C9465000C9465000C9465000C946500BC
:100030000C9465000C94A4000C9465000C9465006D
:100040000C9465000C9465000C9465000C9465009C
:100050000C9465000C9465000C9465000C9465008C
:100060000C9465000C9465000C9465000C9465007C
:100070000C9465000C9465000C9465000C9465006C
:100080000C9465000C9465000C94650011241FBE4F
:10009000CFEFD0E4DEBFCDBF11E0A0E0B1E0EEE9EC
:1000A000F6E000E00BBF02C007900D92A631B10749
:1000B000D9F721E0A6E1B1E001C01D92A233B20759
:1000C000E1F70E94E5010C944D030C940000CF93DE
:1000D000C82F8A3051F09091C00095FFFCCFC0939B
:1000E000C60090E080E0CF9108958DE00E94670007
:1000F000F2CF8BE0809381008DE790E090938900B0
:100100008093880082E080936F00109285001092A7
:1001100084008091000190910101A0910201B091B1
:1001200003018093170190931801A0931901B093D4
:100130001A018FB780688FBF0895109281000895CB
:1001400081E080931B0108951F920F920FB60F92CA
:1001500011240BB60F922F933F934F935F936F939E
:100160007F938F939F93AF93BF93EF93FF93809170
:10017000170190911801A0911901B0911A010197EE
:10018000A109B1098093170190931801A093190157
:10019000B0931A01892B8A2B8B2B99F0FF91EF9149
:1001A000BF91AF919F918F917F916F915F914F918F
:1001B0003F912F910F900BBE0F900FBE0F901F908D
:1001C00018950E94A0008091000190910101A091DA
:1001D0000201B09103018093170190931801A0933D
:1001E0001901B0931A01DACF6093000170930101F5
:1001F000809302019093030160931701709318019B
:100200008093190190931A0108950F931F93CF9330
:10021000DF93082F192FD0E0C0E0CA30D10560F479
:100220000E94DB0263E070E00E944C02F801EC0FD8
:10023000FD1F80832196F1CFDF91CF911F910F9108
:10024000089580911E0190911F0181309105E1F088
:100250008230910501F1892B39F081E090E0909393
:100260001F0180931E0106C081E090E090931F0162
:1002700080931E0180911E0190911F018130910594
:1002800089F0029729F1089582E090E090931F0190
:1002900080931E01EFCF81E090E090931F01809347
:1002A0001E01E8CF8091200190E0FC01EC5DFE4F43
:1002B000308121E001C0220F3A95EAF72093210115
:1002C00001966AE070E00E944C028093200108953C
:1002D0001092210108958091220190912301823092
:1002E000910509F447C038F5009791F10197B1F5F0
:1002F00020B130E020953095277033278091200180
:100300008150990B6AE070E00E944C02FC01EC5DA8
:10031000FE4F408181E090E002C0880F991F4A950E
:10032000E2F728173907D1F482E090E09093230197
:100330008093220113C0039789F4809121018823BF
:1003400069F081E090E0909323018093220106C040
:1003500081E090E09093230180932201809122011B
:100360009091230182309105B9F080F470F41092DD
:1003700016010895809121018111F0CF83E090E072
:100380009093230180932201E9CF0895039719F4F4
:10039000109216010895089581E09091160191112F
:1003A00080E080931601089580911C0190911D01B9
:1003B000892B51F48091160190E1899F90011124BD
:1003C00080912101822B85B9089511B88FEF82B9F0
:1003D00084B915B890E080E00E942502272F862F6F
:1003E000922F0E94DF020E94790064E070E080E0BA
:1003F00090E00E94F40081E090E090931F018093D0
:100400001E0184E291E00E940501C12CD12C7601ED
:1004100014C00E942101C12CD12C76010E946B01D5
:100420000E94D40180911B018823E1F310921B01EB
:1004300084E0C80ED11CE11CF11C84EFC81681E0D9
:10044000D806E104F10450F3E4CFCF93DF9300D05A
:1004500000D0CDB7DEB7FC010FB6F89480912E0125
:1004600090912F01A0913001B091310189839A833D
:10047000AB83BC830FBE309721F080839183A2832E
:10048000B38369817A818B819C810F900F900F904B
:100490000F90DF91CF91089597FB072E16F40094EB
:1004A00007D077FD09D00E94600207FC05D03EF41A
:1004B000909581959F4F0895709561957F4F089510
:1004C000AA1BBB1B51E107C0AA1FBB1FA617B7077A
:1004D00010F0A61BB70B881F991F5A95A9F7809596
:1004E0009095BC01CD010895CF92DF92EF92FF92DB
:1004F000CF93DF93CDB7DEB72A970FB6F894DEBF60
:100500000FBECDBF89879A87A985BA852D913D9168
:100510004D915C9129833A834B835C83232B242B5D
:10052000252B41F424E239ED4BE557E029833A834A
:100530004B835C8369817A818B819C812DE133EFD0
:1005400041E050E00E94EA0269017A01A7EAB1E4C1
:100550009B01AC010E94090369837A838B839C838E
:10056000ACEEB4EFA70196010E9417039B01AC010A
:1005700089819A81AB81BC81820F931FA41FB51F13
:10058000B7FF03C00197A109B048E985FA858083C8
:100590009183A283B3839F772A960FB6F894DEBF28
:1005A0000FBECDBFDF91CF91FF90EF90DF90CF9046
:1005B00008950C94740282E191E00C947402B0E00E
:1005C000A0E08093120190931301A0931401B093C3
:1005D00015010895052E97FB1EF400940E94010357
:1005E00057FD07D00E941C0307FC03D04EF40C9467
:1005F000010350954095309521953F4F4F4F5F4FE8
:10060000089590958095709561957F4F8F4F9F4F7E
:1006100008950E943E03A59F900DB49F900DA49F46
:10062000800D911D11240895B7FF0C9409030E94B9
:100630000903821B930B0895A1E21A2EAA1BBB1B70
:10064000FD010DC0AA1FBB1FEE1FFF1FA217B3079E
:10065000E407F50720F0A21BB30BE40BF50B661FB4
:10066000771F881F991F1A9469F760957095809578
:1006700090959B01AC01BD01CF010895A29FB001EF
:10068000B39FC001A39F700D811D1124911DB29FC6
:0E069000700D811D1124911D0895F894FFCF67
:10069E0001000000000000020000000067000000E2
:0606AE0000000100000045
:00000001FF
