:100000000C9446000C9465000C9465000C946500FB
:100010000C9465000C9465000C9465000C946500CC
:100020000C9465000C9465000C9465000C946500BC
:100030000C9465000C9416010C9465000C946500FA
:100040000C9465000C9465000C9465000C9465009C
:100050000C9465000C9465000C9465000C9465008C
:100060000C9465000C9465000C9465000C9465007C
:100070000C9465000C9465000C9465000C9465006C
:100080000C9465000C9465000C94650011241FBE4F
:10009000CFEFD0E4DEBFCDBF11E0A0E0B1E0E4EDF2
:1000A000F7E100E00BBF02C007900D92A037B10747
:1000B000D9F721E0A0E7B1E001C01D92A73FB20748
:1000C000E1F70E9474060C94E80B0C940000482F92
:1000D000592F30E020E002C02F5F3F4F2417350733
:1000E0004CF490E080E0873063E09607ACF70000C6
:1000F0000196F9CF08959BB19F7B9BB988B98BB1CD
:1001000080688BB900008BB18F778BB982E090E06B
:100110000E946700089581E00E947B00089581316C
:1001200020F481580E947B00089581550E947B0035
:10013000089584E690E00E94670088E30E947B00B7
:1001400086E00E947B008FE00E947B0081E00E949D
:100150007B008AE090E00E94670008959BB1906464
:100160009BB988B98BB180688BB900008BB18F7750
:100170008BB981E090E00E94670008950F931F9370
:10018000CF93DF93182FC62FD72F0E948B00888123
:10019000882351F001E0010F812F0E948F00899187
:1001A0000E94AE00102FF3CFDF91CF911F910F91DE
:1001B0000895CF93C82F8A3051F09091C00095FFD9
:1001C000FCCFC093C60090E080E0CF9108958DE011
:1001D0000E94D900F2CF8BE0809381008DE790E000
:1001E000909389008093880082E080936F00109242
:1001F00085001092840080910E0190910F01A091D2
:100200001001B09111018093890190938A01A0930C
:100210008B01B0938C018FB780688FBF08951092C7
:100220008100089581E080938D0108951F920F92BF
:100230000FB60F9211240BB60F922F933F934F934B
:100240005F936F937F938F939F93AF93BF93EF933E
:10025000FF938091890190918A01A0918B01B091C7
:100260008C010197A109B1098093890190938A01BA
:10027000A0938B01B0938C01892B8A2B8B2B99F047
:10028000FF91EF91BF91AF919F918F917F916F916E
:100290005F914F913F912F910F900BBE0F900FBE2A
:1002A0000F901F9018950E94120180910E0190915D
:1002B0000F01A0911001B0911101809389019093D9
:1002C0008A01A0938B01B0938C01DACF60930E0169
:1002D00070930F0180931001909311016093890135
:1002E00070938A0180938B0190938C0108950F93F2
:1002F0001F93CF93DF9300D000D000D0CDB7DEB7EF
:10030000062F172F8E839D8380918E0190918F01F0
:10031000A0919001B091910189839A83AB83BC83B2
:10032000262F372F4E815D81BC01CD010E947F07B2
:100330008823F1F120E030E0A90109831A839E812E
:100340009B83AD81AC8369817A818B819C810E9482
:100350007F07811138C0E1E9F0E0808188708083F7
:1003600028E539E344E75FE309831A83BE81BB8351
:100370008D818C8369817A818B819C810E947F072A
:1003800088233CF58FEF9FEF90939900809398001E
:100390001092950010929400402F512F6E817D8114
:1003A00040938E0150938F0160939001709391015F
:1003B00026960FB6F894DEBF0FBECDBFDF91CF916A
:1003C0001F910F910895E1E9F0E0808183608083BF
:1003D000C7CF20E034E244EF56E409831A839E81BC
:1003E0009B83AD81AC8369817A818B819C810E94E2
:1003F000A10818162CF41092990010929800C8CFFA
:1004000020E030E040E053E409831A83BE81BB83DF
:100410008D818C8369817A818B819C810E94A60861
:10042000262F372F482F592F60E074E284EF9AE48B
:100430000E94840769837A838B839C8369817A8194
:100440008B819C810E94F607462F572F41505109FE
:1004500050939900409398009BCF80E48093900044
:100460008BE08093910060E070E0CB010E94770107
:10047000089510929000109291000895EAE7F0E03C
:100480008081806E8083089520917800309179007A
:100490003093F0012093EF0181E02D3B324008F4CE
:1004A00080E0089520917800309179003093F00138
:1004B0002093EF0181E02C32314008F080E0089574
:1004C000CF938091F3019091F4018230910509F46A
:1004D00091C008F04BC0009709F467C0019709F07C
:1004E00087C060E070E0CB010E94770180910D0130
:1004F0008F9380910C018F9380910B018F9380914A
:100500000A018F9384E291E09F938F9387EB91E0B0
:100510009F938F930E94130967EB71E081E090E055
:100520000E94BE00809188018F93809187018F93F4
:10053000809186018F93809185018F938FE291E066
:100540009F938F9382E991E09F938F930E94130969
:1005500081E190E00E948F008DB79EB740960FB664
:10056000F8949EBF0FBE8DBFC0E035C0049709F060
:100570003FC080B190E0809590958E709927892B2F
:10058000B9F58091830190918401892B09F45EC0B3
:1005900082E090E09093D0018093CF0181E090E0E1
:1005A0009093F4018093F30123C015B880B190E0DB
:1005B000809590958E709927892BD1F481E090E0F9
:1005C0009093F4018093F30113C0082E000C990B53
:1005D0000E94AE00CF5FEC2FF0E0EE56FE4F808120
:1005E0008111F3CF82E090E09093F4018093F301C6
:1005F000CF91089581E090E00E948F0080B190E05B
:10060000809590958E709927049799F080B190E02D
:10061000809590958E709927029751F710928401DA
:100620001092830184E090E09093F4018093F301B1
:10063000DFCF81E090E0909384018093830184E098
:1006400090E09093F4018093F301E0CF81E090E09B
:10065000A1CF80910401909105019C0136952795C9
:100660003695279528273927AC01569547955695F5
:1006700047955695479524273527AC0156954795BC
:10068000529542954F7045275F704527242735279F
:10069000217033273093A7012093A6019695879563
:1006A0003327269537952227822B932B909305018C
:1006B0008093040108950F931F93CF93DF93082F26
:1006C000192FD0E0C0E0CA30D10560F40E942903A0
:1006D00063E070E00E945707F801EC0FFD1F808374
:1006E0002196F1CFDF91CF911F910F9108958091C5
:1006F000A8019091A9018130910501F18230910505
:1007000021F1892B39F081E090E09093A901809349
:10071000A8010AC085EE91E00E945B0381E090E0B1
:100720009093A9018093A8018091A8019091A901BB
:100730008130910589F0029741F1089582E090E0BF
:100740009093A9018093A801EFCF81E090E090936E
:10075000A9018093A801E8CFE091B601F0E0EB5148
:10076000FE4F208181E090E002C0880F991F2A95FA
:10077000E2F785B98091B60190E001966AE070E0F9
:100780000E9457078093B601089515B80895CF9336
:10079000DF93CDB7DEB76E970FB6F894DEBF0FBE0E
:1007A000CDBF809109018F93809108018F93809133
:1007B00007018F93809106018F938BE391E09F93C4
:1007C0008F93CE0101969F938F930E94130920B1BE
:1007D00030E0209530952E7033278091B6018150FE
:1007E000990B6AE070E00E945707FC01EB51FE4F45
:1007F000408181E090E002C0880F991F4A95E2F79E
:100800000FB6F894DEBF0FBECDBF2817390741F0F1
:1008100080B190E0809590958E709927892B81F01A
:10082000BE016F5F7F4F81E090E00E94BE006E9638
:100830000FB6F894DEBF0FBECDBFDF91CF91089504
:1008400060E070E0CB010E947701EACF8091CB019C
:100850009091CC0181309105D9F082309105F9F069
:10086000892B39F08091CB019091CC01019721F136
:10087000089580B190E0809590958E709927892B8E
:1008800089F381E090E09093CC018093CB01EACF93
:1008900082E090E09093CC018093CB01E3CF80B1D4
:1008A00090E0809590958E709927892BD9F61092BB
:1008B000CC011092CB01D6CF80B190E0809590957D
:1008C0008E70992725B130E0220F331F82179307CE
:1008D00049F1409106015091070160910801709122
:1008E000090180910A0190910B01A0910C01B09136
:1008F0000D01481759076A077B0710F4DB01CA018D
:1009000080930A0190930B01A0930C01B0930D0109
:1009100060E070E088EC92E40E94770181E08093CF
:100920008201A6CF8091060190910701A091080154
:10093000B09109010A97A109B1098093060190932A
:100940000701A0930801B093090161E77DE982E8FE
:1009500093E40E94770108950F931F93CF93DF9341
:10096000082F192FD0E0C0E005C0F801EC0FFD1FE3
:1009700020832196C630D10570F40E9429039C0182
:100980002170307899238CF7215031092E6F3F6FF9
:100990002F5F3F4FEACFDF91CF911F910F910895C5
:1009A0008091CD019091CE018130910529F1823065
:1009B000910549F1892B39F081E090E09093CE01C7
:1009C0008093CD010EC08AEA91E00E94AC0410929F
:1009D0007F0181E090E09093CE018093CD01109251
:1009E00080018091CD019091CE018130910541F13E
:1009F000029709F443C0089582E090E09093CE01FD
:100A00008093CD01EECF80918001863038F481E073
:100A100090E09093CE018093CD01E3CF81E080936D
:100A20007F0180917E018823E1F21092CE01109225
:100A3000CD0110927C011092800110927E01D1CFE5
:100A4000E0918001F0E0EE0FFF1FE655FE4F808140
:100A50009181892B61F06BE471E081E090E00E946C
:100A6000BE00809180018F5F80938001089561E5D1
:100A700071E081E090E00E94BE00F3CF0E948B0005
:100A800008958091F1019091F2018130910541F139
:100A90008230910561F1892B71F08091F101909183
:100AA000F20181309105E1F18230910509F478C0BD
:100AB000892B81F108958091780090917900843696
:100AC00091053CF0809178009091790081329340BB
:100AD00024F381E090E09093F2018093F101DDCF67
:100AE00082E090E09093F2018093F101D6CF809163
:100AF000780090917900843691057CF2809178009D
:100B0000909179008132934044F61092F201109254
:100B1000F101C3CF60E070E0CB010E94770108953E
:100B20008091780090917900843691055CF4E09191
:100B30007C01F0E0EE0FFF1FE655FE4F80819181B2
:100B40000197F1F080917800909179008935924079
:100B50005CF0E0917C01F0E0EE0FFF1FE655FE4FE8
:100B600080819181892B61F080917C018F5F8093DE
:100B70007C0161E77DE982E893E40E9477010895B2
:100B800081E080937D0166E571E081E090E00E9464
:100B9000BE0060E070E088EC92E40E947701089566
:100BA00090917C0180918001981384CF81E08093A3
:100BB0007E0110927F011092F2011092F10180915A
:100BC0007B018F9380917A018F93809179018F932C
:100BD000809178018F9381E691E09F938F9381EDCF
:100BE00091E09F938F930E9413094091850150914A
:100BF00086016091870170918801809178019091C0
:100C00007901A0917A01B0917B012DB73EB7285FA1
:100C10003F4F0FB6F8943EBF0FBE2DBF8417950708
:100C2000A607B70738F0411551056105710511F0A8
:100C3000DB01CA018093850190938601A09387010F
:100C4000B0938801109278011092790110927A0184
:100C500010927B0161ED71E081E090E00E94BE00A6
:100C600029CF1092A9011092A8011092CE011092E2
:100C7000CD011092F2011092F1011092D001109268
:100C8000CF011092F4011092F301109274011092AE
:100C900075011092760110927701109278011092EE
:100CA000790110927A0110927B0110927C011092CE
:100CB000800184EF91E0A0E0B0E080930601909382
:100CC0000701A0930801B0930901109282011092CC
:100CD000810110927D0110927E0110927F0110928D
:100CE000840110928301089511B88EEF82B98FEFBD
:100CF00084B915B887B918B88AB91BB80E94EB0037
:100D000065E070E080E090E00E9466011092D00102
:100D10001092CF011092F4011092F3010E942D0263
:100D20000E9499000E943E02C12CD12C760137C04E
:100D30004091740150917501609176017091770135
:100D40008091060190910701A0910801B0910901DD
:100D5000481759076A077B07A0F50E942604039BE2
:100D600003C08091820181110E943106809174013B
:100D700090917501A0917601B09177010596A11D22
:100D8000B11D8093740190937501A0937601B09387
:100D9000770180918D018823E1F310928D010E94EB
:100DA00029038091CF019091D0018130910509F400
:100DB000BFCF8230910591F0892B59F70E946002D4
:100DC000E8CF0E9477030E94C7031092740110922B
:100DD00075011092760110927701BFCF409170019A
:100DE00050917101609172017091730180910001C5
:100DF00090910101A0910201B09103014817590798
:100E00006A077B0750F580917F01811131C0809185
:100E10007D01882361F085EFC81681E0D806E104E2
:100E2000F104E4F585E0C80ED11CE11CF11C039B24
:100E30003BC08091700190917101A0917201B091BD
:100E400073010596A11DB11D8093700190937101EE
:100E5000A0937201B09373019CCF0E94D0041092B2
:100E60007001109271011092720110927301CBCF38
:100E70008091780190917901A0917A01B0917B01E4
:100E80000596A11DB11D8093780190937901A093DF
:100E90007A01B0937B010E944105B9CF0E943106CF
:100EA000C12CD12C7601BECF0E943106C2CF97FB58
:100EB000072E16F4009407D077FD09D00E946B0727
:100EC00007FC05D03EF4909581959F4F089570954D
:100ED00061957F4F0895AA1BBB1B51E107C0AA1F54
:100EE000BB1FA617B70710F0A61BB70B881F991FCB
:100EF0005A95A9F780959095BC01CD0108950E945F
:100F00002C0808F481E008950E9498070C94670863
:100F10000E94600858F00E94590840F029F45F3F91
:100F200029F00C94500851110C949B080C9456080D
:100F30000E94780868F39923B1F3552391F3951B28
:100F4000550BBB27AA2762177307840738F09F5FEA
:100F50005F4F220F331F441FAA1FA9F335D00E2E57
:100F60003AF0E0E832D091505040E695001CCAF7C4
:100F70002BD0FE2F29D0660F771F881FBB1F261787
:100F800037074807AB07B0E809F0BB0B802DBF015E
:100F9000FF2793585F4F3AF09E3F510578F00C942D
:100FA00050080C949B085F3FE4F3983ED4F3869579
:100FB00077956795B795F7959F5FC9F7880F911D4E
:100FC0009695879597F90895E1E0660F771F881F3A
:100FD000BB1F621773078407BA0720F0621B730BED
:100FE000840BBA0BEE1F88F7E09508950E94FD0769
:100FF0006894B1110C949B0808950E94800888F0B1
:101000009F5798F0B92F9927B751B0F0E1F0660FCC
:10101000771F881F991F1AF0BA95C9F714C0B1300D
:1010200091F00E949A08B1E008950C949A08672FF5
:10103000782F8827B85F39F0B93FCCF3869577953C
:101040006795B395D9F73EF4909580957095619525
:101050007F4F8F4F9F4F0895990F0008550FAA0B90
:10106000E0E8FEEF16161706E807F907C0F01216BB
:101070001306E407F50798F0621B730B840B950BBE
:1010800039F40A2661F0232B242B252B21F4089513
:101090000A2609F4A140A6958FEF811D811D0895B0
:1010A00097F99F6780E870E060E008959FEF80EC1B
:1010B000089500240A9416161706180609060895BE
:1010C00000240A9412161306140605060895092E24
:1010D0000394000C11F4882352F0BB0F40F4BF2B93
:1010E00011F460FF04C06F5F7F4F8F4F9F4F0895D3
:1010F00057FD9058440F551F59F05F3F71F04795C9
:10110000880F97FB991F61F09F3F79F087950895AD
:10111000121613061406551FF2CF4695F1DF08C0CC
:10112000161617061806991FF1CF869571056105E9
:1011300008940895E894BB2766277727CB0197F991
:1011400008950E942C0808F48FEF08950E94B908B2
:101150000C9467080E94590838F00E94600820F03B
:10116000952311F00C9450080C94560811240C94FB
:101170009B080E94780870F3959FC1F3950F50E08B
:10118000551F629FF001729FBB27F00DB11D639F39
:10119000AA27F00DB11DAA1F649F6627B00DA11DDF
:1011A000661F829F2227B00DA11D621F739FB00D85
:1011B000A11D621F839FA00D611D221F749F3327F5
:1011C000A00D611D231F849F600D211D822F762F8E
:1011D0006A2F11249F5750409AF0F1F088234AF06B
:1011E000EE0FFF1FBB1F661F771F881F91505040D7
:1011F000A9F79E3F510580F00C9450080C949B0871
:101200005F3FE4F3983ED4F3869577956795B7955D
:10121000F795E7959F5FC1F7FE2B880F911D969577
:10122000879597F908950F931F93CF93DF93CDB7C9
:10123000DEB72E970FB6F894DEBF0FBECDBF0D8977
:101240001E8986E08C831A8309838FEF9FE79E8334
:101250008D83AE01475E5F4F6F89788DCE01019619
:101260000E9443092F813885020F131FF801108255
:101270002E960FB6F894DEBF0FBECDBFDF91CF9193
:101280001F910F9108952F923F924F925F926F920C
:101290007F928F929F92AF92BF92CF92DF92EF9206
:1012A000FF920F931F93CF93DF93CDB7DEB72F97A6
:1012B0000FB6F894DEBF0FBECDBF7C013B018A01A3
:1012C000DC0117961C921E92169713968C9181FF43
:1012D000D8C19AE0292EFE0131964F01D70113960D
:1012E0009C91F30193FD859193FF81913F018823A8
:1012F00009F448C1853239F493FD859193FF8191BA
:101300003F01853229F4B70190E00E945A0BE6CFE5
:10131000B12C412C512CBFE1B51538F08B3209F1BD
:1013200088F4803201F1833221F157FC3AC020ED7C
:10133000280F2A3040F556FE1FC0B29C200D112404
:10134000B22E06C08D3291F0803379F7689450F850
:10135000F30193FD859193FF81913F018111DBCFD3
:1013600020C0689451F8689452F8F2CF689453F80A
:10137000EFCF689454F8ECCF429C200D1124422EFC
:10138000689455F8E5CF8E3229F456FCFBC068947A
:1013900056F8DECF8C3619F4689457F8D9CF8836D2
:1013A000B9F2982F9F7D95549330C0F08336A1F108
:1013B0008337C1F1833509F05BC0D801CD90DD9052
:1013C0008D016B2D70E056FC02C06FEF7FEFC60100
:1013D0000E94440B5C01689457F80AC00C5F1F4FD1
:1013E000EFE3E983AA24A394B12C6401E89457F8AD
:1013F00053FC04C04A141B0409F018F5342CA11442
:10140000B10431F5332009F469CFB70180E290E0EF
:101410000E945A0B3A94F6CFD8018C9189830E5FC3
:101420001F4FE0CFF801C190D1908F016B2D70E07C
:1014300056FC02C06FEF7FEFC6010E944F0B5C01AC
:10144000D5CFB70180E290E00E945A0B4A94D2CFE8
:10145000F60157FC859157FE81916F01B70190E02D
:101460000E945A0B31103A94B1E0AB1AB108C7CFC1
:10147000843619F0893609F074C0F80157FE6AC045
:1014800061917191819191918F01E52DEF76DE2E21
:1014900097FF09C090958095709561957F4F8F4F0C
:1014A0009F4F6894D7F82AE030E0A4010E948A0B8D
:1014B000C82EC818AC2C5D2CD6FE0CC0E89450F891
:1014C000CB1440F4D4FE05C0D2FC03C05D2D5E7E7B
:1014D000552EAB2C54FEADC0FE01EC0DF11D8081EC
:1014E000803309F09FC0652D697E562E752D78706A
:1014F000372E53FCADC050FEA7C0BC2CA41418F46A
:101500004C0CB42CBA1854FEA9C0B70180E390E08B
:101510000E945A0B52FE09C088E790E051FE02C0BB
:1015200088E590E0B7010E945A0BCB1408F4A2C0E2
:10153000CA94D12C8FEFC81AD80AC80CD91CD6016E
:101540008E916D01B70190E00E945A0B8C149D049E
:10155000B1F758CF61917191072E000C880B990B50
:1015600093CFD52CE894D4F82AE030E08537E1F128
:10157000F52DF97FDF2E803751F100F5883551F1D7
:101580008F3681F1F701868197812F960FB6F894F7
:10159000DEBF0FBECDBFDF91CF911F910F91FF90A6
:1015A000EF90DF90CF90BF90AF909F908F907F9003
:1015B0006F905F904F903F902F900895883711F76C
:1015C000D4FE02C06894D2F820E130E00DC06894E7
:1015D000D4F8F6CF54FE03C02F2F2660D22E20E180
:1015E00032E002C028E030E0F801D7FE15C041919A
:1015F0005191619171914C875D876E877F878F01D3
:10160000A4016C857D858E859F850E948A0BC82EDE
:10161000C818E894D7F84ECF81919191AC0170E051
:1016200060E0E9CF52FC02C0A39460CFA394A394DE
:101630005DCF852D867809F459CFF6CFB70180E2CA
:1016400090E00E945A0BA394A414C0F3312C5BCFFA
:10165000342C3A18A41408F456CFF8CF852D867888
:1016600009F463CF8BE251FE80E257FC8DE2B701B3
:1016700090E059CFB70180E390E00E945A0BBA94F2
:1016800054CF8FEF9FEF81CFFC01059061507040E8
:101690000110D8F7809590958E0F9F1F0895FC013B
:1016A0006150704001900110D8F7809590958E0F91
:1016B0009F1F08950F931F93CF93DF93182F092F28
:1016C000EB018B8181FD09C01FEF0FEF812F902F60
:1016D000DF91CF911F910F91089582FF14C02E8149
:1016E0003F818C819D81281739073CF4E881F9817D
:1016F000CF0101969983888310838E819F81019603
:101700009F838E83E3CFE885F985812F0995892B07
:10171000A1F3DACFFA01AA27283051F1203181F163
:10172000E8946F936E7F6E5F7F4F8F4F9F4FAF4FE9
:10173000B1E03ED0B4E03CD0670F781F891F9A1FFC
:10174000A11D680F791F8A1F911DA11D6A0F711DB0
:10175000811D911DA11D20D009F468943F912AE0BC
:10176000269F11243019305D3193DEF6CF010895A4
:10177000462F4770405D4193B3E00FD0C9F7F6CFD5
:10178000462F4F70405D4A3318F0495D31FD40529D
:10179000419302D0A9F7EACFB4E0A6959795879533
:1017A00077956795BA95C9F7009761057105089512
:1017B0009B01AC010A2E06945795479537952795BE
:1017C000BA95C9F7620F731F841F951FA01D089556
:0417D000F894FFCFBB
:1017D40058020000F1ABF4010000F4010000010024
:1017E40000000000000200000000D900000000001A
:1017F4002C01BC025265666C65783A202564005061
:1018040061747465726E3A202564005265666C6575
:10181400782054696D653A2025640052494748543C
:10182400004C454654006C6F6C2C207472617368D4
:10183400004E494345212054494D453A2025640032
:00000001FF
