:100000000C9446000C9465000C9465000C946500FB
:100010000C9465000C9465000C9465000C946500CC
:100020000C9465000C9465000C9465000C946500BC
:100030000C9465000C9416010C9465000C946500FA
:100040000C9465000C9465000C9465000C9465009C
:100050000C9465000C9465000C9465000C9465008C
:100060000C9465000C9465000C9465000C9465007C
:100070000C9465000C9465000C9465000C9465006C
:100080000C9465000C9465000C94650011241FBE4F
:10009000CFEFD0E4DEBFCDBF11E0A0E0B1E0EAE4F5
:1000A000F3E100E00BBF02C007900D92AE32B10742
:1000B000D9F721E0AEE2B1E001C01D92A235B2074E
:1000C000E1F70E94B2030C94A3090C940000482F9E
:1000D000592F30E020E002C02F5F3F4F2417350733
:1000E0004CF490E080E0873063E09607ACF70000C6
:1000F0000196F9CF08959BB19F7B9BB988B98BB1CD
:1001000080688BB900008BB18F778BB982E090E06B
:100110000E946700089581E00E947B00089581316C
:1001200020F481580E947B00089581550E947B0035
:10013000089584E690E00E94670088E30E947B00B7
:1001400086E00E947B008FE00E947B0081E00E949D
:100150007B008AE090E00E94670008959BB1906464
:100160009BB988B98BB180688BB900008BB18F7750
:100170008BB981E090E00E94670008950F931F9370
:10018000CF93DF93182FC62FD72F0E948B00888123
:10019000882351F001E0010F812F0E948F00899187
:1001A0000E94AE00102FF3CFDF91CF911F910F91DE
:1001B0000895CF93C82F8A3051F09091C00095FFD9
:1001C000FCCFC093C60090E080E0CF9108958DE011
:1001D0000E94D900F2CF8BE0809381008DE790E000
:1001E000909389008093880082E080936F00109242
:1001F0008500109284008091020190910301A091EA
:100200000401B091050180932F0190933001A093D8
:100210003101B09332018FB780688FBF089510927B
:100220008100089581E08093330108951F920F9219
:100230000FB60F9211240BB60F922F933F934F934B
:100240005F936F937F938F939F93AF93BF93EF933E
:10025000FF9380912F0190913001A0913101B091D5
:1002600032010197A109B10980932F0190933001C8
:10027000A0933101B0933201892B8A2B8B2B99F0FB
:10028000FF91EF91BF91AF919F918F917F916F916E
:100290005F914F913F912F910F900BBE0F900FBE2A
:1002A0000F901F9018950E94120180910201909169
:1002B0000301A0910401B091050180932F01909357
:1002C0003001A0933101B0933201DACF6093020183
:1002D00070930301809304019093050160932F01B3
:1002E00070933001809331019093320108950F9300
:1002F0001F93CF93DF9300D000D000D0CDB7DEB7EF
:10030000062F172F8E839D838091340190913501A4
:10031000A0913601B091370189839A83AB83BC8366
:10032000262F372F4E815D81BC01CD010E946104D3
:100330008823F1F120E030E0A90109831A839E812E
:100340009B83AD81AC8369817A818B819C810E9482
:100350006104811138C0E1E9F0E080818870808318
:1003600028E539E344E75FE309831A83BE81BB8351
:100370008D818C8369817A818B819C810E9461044B
:1003800088233CF58FEF9FEF90939900809398001E
:100390001092950010929400402F512F6E817D8114
:1003A00040933401509335016093360170933701C7
:1003B00026960FB6F894DEBF0FBECDBFDF91CF916A
:1003C0001F910F910895E1E9F0E0808183608083BF
:1003D000C7CF20E034E244EF56E409831A839E81BC
:1003E0009B83AD81AC8369817A818B819C810E94E2
:1003F000830518162CF41092990010929800C8CF1B
:1004000020E030E040E053E409831A83BE81BB83DF
:100410008D818C8369817A818B819C810E94880582
:10042000262F372F482F592F60E074E284EF9AE48B
:100430000E94660469837A838B839C8369817A81B5
:100440008B819C810E94D804462F572F415051091F
:1004500050939900409398009BCF80E48093900044
:100460008BE08093910060E070E0CB010E94770107
:100470000895109290001092910008950F931F9389
:10048000CF93DF93CDB7DEB764970FB6F894DEBF96
:100490000FBECDBF80914A0190914B0181309105F3
:1004A00091F184309105F1F1892B59F064960FB6E2
:1004B000F894DEBF0FBECDBFDF91CF911F910F919A
:1004C000089515B880912E011F928F9388E191E0D5
:1004D0009F938F938E010F5F1F4F1F930F930E9467
:1004E0006B06B80181E090E00E94BE0081E090E0E0
:1004F00090934B0180934A010F900F900F900F90B3
:100500000F900F90D3CF80B190E0809590958F7031
:100510009927019759F684E090E090934B018093DE
:100520004A01C4CF80B190E0809590958F70992753
:10053000892B09F0BBCF10924B0110924A0181E048
:1005400090E090933E0180933D01B0CF80910001F7
:10055000909101019C01369527953695279528277E
:100560003927AC0156954795569547955695479529
:1005700024273527AC0156954795529542954F70E3
:1005800045275F704527242735272170332730936F
:10059000390120933801969587953327269537950D
:1005A0002227822B932B90930101809300010895C1
:1005B0000F931F93CF93DF93082F192FD0E0C0E044
:1005C000CA30D10560F40E94A60263E070E00E9488
:1005D0003904F801EC0FFD1F80832196F1CFDF91E4
:1005E000CF911F910F91089580913A0190913B0115
:1005F0008130910501F18230910521F1892B39F08B
:1006000081E090E090933B0180933A010AC080E43E
:1006100091E00E94D80281E090E090933B018093AA
:100620003A0180913A0190913B018130910589F026
:10063000029741F1089582E090E090933B0180930E
:100640003A01EFCF81E090E090933B0180933A0133
:10065000E8CFE0913C01F0E0E05CFE4F208181E0DA
:1006600090E002C0880F991F2A95E2F785B9809122
:100670003C0190E001966AE070E00E9439048093AA
:100680003C01089515B808950F931F93CF93DF93FE
:1006900000D000D00F92CDB7DEB720B130E020956A
:1006A00030952770332780913C018150990B6AE087
:1006B00070E00E943904FC01E05CFE4F408181E063
:1006C00090E002C0880F991F4A95E2F72817390772
:1006D000B9F180B190E08095909587709927892B2A
:1006E000D9F180912E01815080932E0160E070E05D
:1006F00088EC92E40E94770180912E011F928F93E3
:100700008AE291E09F938F938E010F5F1F4F1F939B
:100710000F930E946B06B80181E090E00E94BE003A
:100720000F900F900F900F900F900F900F900F90D1
:100730000F900F900F90DF91CF911F910F9108951F
:1007400080912E018F5F80932E0161E77DE982E821
:1007500093E40E947701D0CF60E070E0CB010E946B
:100760007701CACF11B88FEF82B984B915B887B9AC
:1007700018B88AB91BB890E080E00E941204272FB5
:10078000862F922F0E9460060E94EB0063E070E0CB
:1007900080E090E00E94660110923E0110923D01BF
:1007A00010923B0110923A010E942D020E94990082
:1007B000C12CD12C760108C00E943E0280913301E9
:1007C0008823E1F31092330180913D0190913E0125
:1007D000009791F3019791F784EFC81681E0D8064E
:1007E000E104F104B8F402990FC010923B01109299
:1007F0003A0110923E0110923D0110924B0110926D
:100800004A01C12CD12C760183E0C80ED11CE11C19
:10081000F11CD4CF0E94F4020E944403C12CD12CBD
:100820007601E1CFCF93DF9300D000D0CDB7DEB714
:10083000FC010FB6F89480914E0190914F01A09168
:100840005001B091510189839A83AB83BC830FBE61
:10085000309721F080839183A283B38369817A8169
:100860008B819C810F900F900F900F90DF91CF9113
:10087000089597FB072E16F4009407D077FD09D052
:100880000E944D0407FC05D03EF4909581959F4F42
:100890000895709561957F4F0895AA1BBB1B51E188
:1008A00007C0AA1FBB1FA617B70710F0A61BB70BE0
:1008B000881F991F5A95A9F780959095BC01CD0185
:1008C00008950E940E0508F481E008950E947A04BC
:1008D0000C9449050E94420558F00E943B0540F0E7
:1008E00029F45F3F29F00C94320551110C947D05D9
:1008F0000C9438050E945A0568F39923B1F35523E7
:1009000091F3951B550BBB27AA2762177307840722
:1009100038F09F5F5F4F220F331F441FAA1FA9F3B8
:1009200035D00E2E3AF0E0E832D091505040E695A6
:10093000001CCAF72BD0FE2F29D0660F771F881F07
:10094000BB1F261737074807AB07B0E809F0BB0BFA
:10095000802DBF01FF2793585F4F3AF09E3F51050E
:1009600078F00C9432050C947D055F3FE4F3983EDB
:10097000D4F3869577956795B795F7959F5FC9F7F7
:10098000880F911D9695879597F90895E1E0660F78
:10099000771F881FBB1F621773078407BA0720F0F1
:1009A000621B730B840BBA0BEE1F88F7E09508955A
:1009B0000E94DF046894B1110C947D0508950E9493
:1009C000620588F09F5798F0B92F9927B751B0F07A
:1009D000E1F0660F771F881F991F1AF0BA95C9F7C3
:1009E00014C0B13091F00E947C05B1E008950C94E0
:1009F0007C05672F782F8827B85F39F0B93FCCF393
:100A0000869577956795B395D9F73EF4909580953F
:100A1000709561957F4F8F4F9F4F0895990F0008F4
:100A2000550FAA0BE0E8FEEF16161706E807F907C0
:100A3000C0F012161306E407F50798F0621B730B5B
:100A4000840B950B39F40A2661F0232B242B252BDC
:100A500021F408950A2609F4A140A6958FEF811D7F
:100A6000811D089597F99F6780E870E060E0089520
:100A70009FEF80EC089500240A94161617061806B6
:100A80000906089500240A94121613061406050692
:100A90000895092E0394000C11F4882352F0BB0F23
:100AA00040F4BF2B11F460FF04C06F5F7F4F8F4F86
:100AB0009F4F089557FD9058440F551F59F05F3FC1
:100AC00071F04795880F97FB991F61F09F3F79F070
:100AD00087950895121613061406551FF2CF4695F2
:100AE000F1DF08C0161617061806991FF1CF869574
:100AF0007105610508940895E894BB276627772758
:100B0000CB0197F908950E940E0508F48FEF089520
:100B10000E949B050C9449050E943B0538F00E94F9
:100B2000420520F0952311F00C9432050C94380501
:100B300011240C947D050E945A0570F3959FC1F312
:100B4000950F50E0551F629FF001729FBB27F00D7B
:100B5000B11D639FAA27F00DB11DAA1F649F6627D0
:100B6000B00DA11D661F829F2227B00DA11D621F1F
:100B7000739FB00DA11D621F839FA00D611D221FD9
:100B8000749F3327A00D611D231F849F600D211DBD
:100B9000822F762F6A2F11249F5750409AF0F1F040
:100BA00088234AF0EE0FFF1FBB1F661F771F881FA9
:100BB00091505040A9F79E3F510580F00C943205AA
:100BC0000C947D055F3FE4F3983ED4F386957795CA
:100BD0006795B795F795E7959F5FC1F7FE2B880F4F
:100BE000911D9695879597F90895CF92DF92EF9290
:100BF000FF92CF93DF93CDB7DEB72A970FB6F89465
:100C0000DEBF0FBECDBF89879A87A985BA852D9192
:100C10003D914D915C9129833A834B835C83232BD7
:100C2000242B252B41F424E239ED4BE557E02983B1
:100C30003A834B835C8369817A818B819C812DE12E
:100C400033EF41E050E00E94400969017A01A7EAD0
:100C5000B1E49B01AC010E945F0969837A838B83B5
:100C60009C83ACEEB4EFA70196010E946D099B0135
:100C7000AC0189819A81AB81BC81820F931FA41F33
:100C8000B51FB7FF03C00197A109B048E985FA85F0
:100C900080839183A283B3839F772A960FB6F894BB
:100CA000DEBF0FBECDBFDF91CF91FF90EF90DF9001
:100CB000CF9008950C94F50584E191E00C94F5052E
:100CC000B0E0A0E08093140190931501A093160169
:100CD000B093170108950F931F93CF93DF93CDB770
:100CE000DEB72E970FB6F894DEBF0FBECDBF0D89CD
:100CF0001E8986E08C831A8309838FEF9FE79E838A
:100D00008D83AE01475E5F4F6F89788DCE0101966E
:100D10000E949B062F813885020F131FF801108255
:100D20002E960FB6F894DEBF0FBECDBFDF91CF91E8
:100D30001F910F9108952F923F924F925F926F9261
:100D40007F928F929F92AF92BF92CF92DF92EF925B
:100D5000FF920F931F93CF93DF93CDB7DEB72F97FB
:100D60000FB6F894DEBF0FBECDBF7C013B018A01F8
:100D7000DC0117961C921E92169713968C9181FF98
:100D8000D8C19AE0292EFE0131964F01D701139662
:100D90009C91F30193FD859193FF81913F018823FD
:100DA00009F448C1853239F493FD859193FF81910F
:100DB0003F01853229F4B70190E00E94B208E6CFE6
:100DC000B12C412C512CBFE1B51538F08B3209F113
:100DD00088F4803201F1833221F157FC3AC020EDD2
:100DE000280F2A3040F556FE1FC0B29C200D11245A
:100DF000B22E06C08D3291F0803379F7689450F8A6
:100E0000F30193FD859193FF81913F018111DBCF28
:100E100020C0689451F8689452F8F2CF689453F85F
:100E2000EFCF689454F8ECCF429C200D1124422E51
:100E3000689455F8E5CF8E3229F456FCFBC06894CF
:100E400056F8DECF8C3619F4689457F8D9CF883627
:100E5000B9F2982F9F7D95549330C0F08336A1F15D
:100E60008337C1F1833509F05BC0D801CD90DD90A7
:100E70008D016B2D70E056FC02C06FEF7FEFC60155
:100E80000E949C085C01689457F80AC00C5F1F4FD1
:100E9000EFE3E983AA24A394B12C6401E89457F802
:100EA00053FC04C04A141B0409F018F5342CA11497
:100EB000B10431F5332009F469CFB70180E290E045
:100EC0000E94B2083A94F6CFD8018C9189830E5FC4
:100ED0001F4FE0CFF801C190D1908F016B2D70E0D2
:100EE00056FC02C06FEF7FEFC6010E94A7085C01AD
:100EF000D5CFB70180E290E00E94B2084A94D2CFE9
:100F0000F60157FC859157FE81916F01B70190E082
:100F10000E94B20831103A94B1E0AB1AB108C7CFC1
:100F2000843619F0893609F074C0F80157FE6AC09A
:100F300061917191819191918F01E52DEF76DE2E76
:100F400097FF09C090958095709561957F4F8F4F61
:100F50009F4F6894D7F82AE030E0A4010E94E2088D
:100F6000C82EC818AC2C5D2CD6FE0CC0E89450F8E6
:100F7000CB1440F4D4FE05C0D2FC03C05D2D5E7ED0
:100F8000552EAB2C54FEADC0FE01EC0DF11D808141
:100F9000803309F09FC0652D697E562E752D7870BF
:100FA000372E53FCADC050FEA7C0BC2CA41418F4BF
:100FB0004C0CB42CBA1854FEA9C0B70180E390E0E1
:100FC0000E94B20852FE09C088E790E051FE02C0BC
:100FD00088E590E0B7010E94B208CB1408F4A2C0E3
:100FE000CA94D12C8FEFC81AD80AC80CD91CD601C4
:100FF0008E916D01B70190E00E94B2088C149D049F
:10100000B1F758CF61917191072E000C880B990BA5
:1010100093CFD52CE894D4F82AE030E08537E1F17D
:10102000F52DF97FDF2E803751F100F5883551F12C
:101030008F3681F1F701868197812F960FB6F8944C
:10104000DEBF0FBECDBFDF91CF911F910F91FF90FB
:10105000EF90DF90CF90BF90AF909F908F907F9058
:101060006F905F904F903F902F900895883711F7C1
:10107000D4FE02C06894D2F820E130E00DC068943C
:10108000D4F8F6CF54FE03C02F2F2660D22E20E1D5
:1010900032E002C028E030E0F801D7FE15C04191EF
:1010A0005191619171914C875D876E877F878F0128
:1010B000A4016C857D858E859F850E94E208C82EDF
:1010C000C818E894D7F84ECF81919191AC0170E0A7
:1010D00060E0E9CF52FC02C0A39460CFA394A39434
:1010E0005DCF852D867809F459CFF6CFB70180E220
:1010F00090E00E94B208A394A414C0F3312C5BCFFB
:10110000342C3A18A41408F456CFF8CF852D8678DD
:1011100009F463CF8BE251FE80E257FC8DE2B70108
:1011200090E059CFB70180E390E00E94B208BA94F2
:1011300054CF8FEF9FEF81CFFC010590615070403D
:101140000110D8F7809590958E0F9F1F0895FC0190
:101150006150704001900110D8F7809590958E0FE6
:101160009F1F08950F931F93CF93DF93182F092F7D
:10117000EB018B8181FD09C01FEF0FEF812F902FB5
:10118000DF91CF911F910F91089582FF14C02E819E
:101190003F818C819D81281739073CF4E881F981D2
:1011A000CF0101969983888310838E819F81019658
:1011B0009F838E83E3CFE885F985812F0995892B5D
:1011C000A1F3DACFFA01AA27283051F1203181F1B9
:1011D000E8946F936E7F6E5F7F4F8F4F9F4FAF4F3F
:1011E000B1E03ED0B4E03CD0670F781F891F9A1F52
:1011F000A11D680F791F8A1F911DA11D6A0F711D06
:10120000811D911DA11D20D009F468943F912AE011
:10121000269F11243019305D3193DEF6CF010895F9
:10122000462F4770405D4193B3E00FD0C9F7F6CF2A
:10123000462F4F70405D4A3318F0495D31FD4052F2
:10124000419302D0A9F7EACFB4E0A6959795879588
:1012500077956795BA95C9F7009761057105089567
:101260009B01AC010A2E0694579547953795279513
:10127000BA95C9F7620F731F841F951FA01D0895AB
:10128000052E97FB1EF400940E94570957FD07D0C6
:101290000E94720907FC03D04EF40C945709509534
:1012A0004095309521953F4F4F4F5F4F0895909552
:1012B0008095709561957F4F8F4F9F4F08950E9445
:1012C0009409A59F900DB49F900DA49F800D911D32
:1012D00011240895B7FF0C945F090E945F09821BD7
:1012E000930B0895A1E21A2EAA1BBB1BFD010DC092
:1012F000AA1FBB1FEE1FFF1FA217B307E407F507C6
:1013000020F0A21BB30BE40BF50B661F771F881FA1
:10131000991F1A9469F760957095809590959B0137
:10132000AC01BD01CF010895A29FB001B39FC001E0
:10133000A39F700D811D1124911DB29F700D811D01
:0A1340001124911D0895F894FFCFC9
:10134A00E1AC010000000000000200000000D9002A
:10135A0000000000010000004D61696E204D656EBD
:0E136A00752C2053636F72653A2025640000D5
:00000001FF
